:1000000014C021C020C01FC01EC01DC01CC0E6C13E
:100010001AC019C018C017C016C015C014C013C02C
:1000200012C011C010C00FC00EC011241FBECFEDF2
:10003000CDBF20E0A0E6B0E001C01D92A337B2071B
:10004000E1F778D144C3DCCF8F929F92AF92BF92F9
:10005000CF92DF92EF92FF92CF93DF93FC01DB010F
:100060008C91813009F045C08091670090916800C3
:10007000E817F90710F41C924DC020916D003091E3
:100080006E002E173F07F0F5A0916900B0916A004D
:10009000AE17BF07E0F1C0916500D0916600A21BCA
:1000A000B30BCE0160E87FEF4DD28058984AAD0186
:1000B00056954795840F951FBD0155D280E090E07D
:1000C000AF01421B530B9A0140E050E062D249015C
:1000D0005A0150E4850E911CA11CB11C77E0B69426
:1000E000A794979487947A95D1F7CE01880D991D9E
:1000F00013C080916B0090916C00E817F90750F0E5
:1001000081E08C93809165009091660005C08FEA34
:1001100090E002C080E090E0DF91CF91FF90EF90FF
:10012000DF90CF90BF90AF909F908F90089598E010
:10013000B89A80FF0AC022E02A95F1F700C0B8986B
:1001400026E52A95F1F7000009C026E52A95F1F782
:100150000000B89822E02A95F1F700C086959150EA
:1001600039F70895B89A8CEC91E00197F1F700C047
:100170000000B89897E89A95F1F7000086B381706F
:100180008195089598E080E08695B89A22E02A95B6
:10019000F1F700C0B89828E02A95F1F700C0B099AF
:1001A00080682CE42A95F1F70000915069F70895D2
:1001B000CF93C82FD7DF81110CC082E691E0019761
:1001C000F1F700C000008CECB2DF8C2FB0DF80E0D4
:1001D00001C08FEFCF910895CF93DF93F894809172
:1001E0006100823021F118F4813081F005C0833044
:1001F00011F1843009F441C08EE4DADF8AEA97DF36
:100200008AEA95DF8FE793DF81E040C08EEBD0DF95
:10021000B9DFB8DFB7DFB6DFB5DF8F3719F010927F
:10022000610003C082E0809361009CDF31C084E400
:10023000BFDF83E02BC08EEBBBDFA4DFC82FD0E095
:10024000A1DFD82B8FDF882319F081E08093610034
:100250007894CE018827907F892B11F0C0E0D0E000
:1002600060E670E0CE01F0DE9DD084E680936F0002
:1002700084E080936100A8950BC080916F00882373
:1002800021F0815080936F0003C082E08093610071
:10029000789480916000811102C0919A01C0919878
:1002A000DF91CF9108956091690070916A0088E0B4
:1002B00090E0E8D160916D0070916E0086E090E072
:1002C000E1D160916B0070916C0084E090E0DAD134
:1002D000609167007091680082E090E0D3D16091F6
:1002E00065007091660080E090E0CCC188E090E00D
:1002F000C6D190936A008093690086E090E0BFD1F8
:1003000090936E0080936D0084E090E0B8D190935C
:100310006C0080936B0082E090E0B1D19093680014
:100320008093670080E090E0AAD19093660080936C
:1003300065000895919A899A3ED0D8DF84E083BF02
:1003400080E986BF43D088B38A6F88BB82B38C674D
:1003500082BB2FE088E190E00FB6F894A89581BDAC
:100360000FBE21BD7894C2E380916200811102C06A
:1003700033DF07C081508093620091988FEA90E04C
:1003800011D080916300813029F410926300C093F2
:10039000620089DF08B600FEFDCF12BE88B781601B
:1003A00088BFE2CF009711F41FBC02C022E82FBD26
:1003B0009BBD8ABD0895BB9A8FEA90E095BD84BD30
:1003C0001FBC1BBC1ABC89E18EBD089580E98AB9A7
:1003D00086E083B912B881E089B908951F920F921F
:1003E0000FB60F9211241F932F933F934F935F9358
:1003F0006F937F938F939F93AF93BF93CF93DF932D
:10040000EF93FF93E1E024E630E0F5E0C4E0D3E0D1
:1004100012E05B997DC04CB150916400543038F4C7
:1004200051110CC0463439F4E093640075C080ED7E
:10043000840F8A30F8F0109264006EC0513029F4B5
:100440004134C9F71093640067C0523071F48FECE7
:10045000840F853080F7D09364004053409372003E
:10046000109271001092700057C04F3521F7C09361
:10047000640052C08091700090917100C097840F09
:10048000911D9093710080937000543051F4F0935B
:1004900064006AE070E056D0909371008093700021
:1004A0003BC0109264005530B9F540917200453060
:1004B00028F454E0880F991F5A95E1F7423089F0EB
:1004C00038F44130C1F490936A00809369001DC0F4
:1004D000433061F0443079F4909368008093670072
:1004E00014C090936E0080936D000FC090936C00C9
:1004F00080936B000AC06FEA70E024D0C296B90105
:1005000032D07093660060936500E093630004C08E
:10051000109264005498549A5F997BCFFF91EF91A9
:10052000DF91CF91BF91AF919F918F917F916F910B
:100530005F914F913F912F911F910F900FBE0F90A0
:100540001F9018950024552704C0080E591F880FC6
:10055000991F009729F076956795B8F37105B9F75B
:10056000802D952F0895AA1BBB1B51E107C0AA1F20
:10057000BB1FA617B70710F0A61BB70B881F991F44
:100580005A95A9F780959095BC01CD01089568947E
:100590000013E894A0E0B0E0EFECF2E01DC0EFEF54
:1005A000E7F959016A015E23550FEE08FE2C870119
:1005B0009B01AC019E23990F660B762FCB0131D0A6
:1005C000CDB7DD27EAE01FC02F923F924F925F9296
:1005D0006F927F928F929F92AF92BF92CF92DF9253
:1005E000EF92FF920F931F93CF93DF93CDB7CA1B68
:1005F000CDBFDD2709942A88398848885F846E84B6
:100600007D848C849B84AA84B984C884DF80EE8036
:10061000FD800C811B81AA81D981CE0FCDBFCA2F4D
:100620000895DF93CF939F92A0E49A2E0024D001E7
:10063000E001F00116950795F794E794D794C794D5
:10064000B794A79448F41068A20FB31FC41FD51F16
:10065000E61FF71F081E191E220F331F441F551FC8
:10066000661F771F881F991F9A9421F79D01AE017D
:10067000BF01C00111249F90CF91DF910895A8E19F
:1006800042E006C00196272F11D00FC0A82F862F59
:10069000E82FE199FECF1FBA05C0EEBBE09AE395C3
:1006A0000DB20D924150C8F70895262FE199FECF63
:1006B0001FBA8EBBE09A81500DB2021639F01CBAF7
:1006C0002DBB0FB6F894E29AE19A0FBE0895F89404
:0206D000FFCF5A
:00000001FF
